:100000000C942A000C9447000C9447000C94470071
:100010000C9447000C9447000C9447000C941F1359
:100020000C9447000C9447000C9447000C94470034
:100030000C9447000C943F060C9447000C94470026
:100040000C9447000C9447000C9447000C94470014
:100050000C94470011241FBECFE5D8E0DEBFCDBF12
:1000600010E0A0E6B0E0E0E9F9E402C005900D92EE
:10007000A238B107D9F715E0A2E8B0E001C01D929F
:10008000A231B107E1F70E9432230C94C6240C94EC
:100090000000EF92FF920F931F937B018C0120E0F1
:1000A00030E040E05FE40E94490388238CF0C801FF
:1000B000B70120E030E040E05FE40E94C1010E940F
:1000C000A9039B01AC01205030404040504806C07D
:1000D000C801B7010E94A9039B01AC01B901CA0183
:1000E0001F910F91FF90EF900895A0E0B0E0EBE733
:1000F000F0E00C947024DC012B01FA019C91923009
:1001000008F439C1EB018881823008F433C194309E
:1001100069F4843009F02FC111969C91119789815F
:10012000981709F428C1A7E7B0E025C1843009F485
:1001300021C18230A9F4923009F01DC19A01AD01AC
:1001400088E0EA010990AE01E90109929E0181501F
:10015000C1F7E201898111969C918923818308C1AD
:10016000923009F407C112962D903C901397EB0141
:100170008A819B811496AD90BD90CD90DC901797AD
:10018000EC80FD800E811F819101281B390BB90184
:1001900037FF04C066277727621B730B6032710537
:1001A0000CF061C0121613066CF537014801062EDB
:1001B00004C096948794779467940A94D2F721E0C8
:1001C00030E040E050E004C0220F331F441F551FB1
:1001D0006A95D2F721503040404050402E213F21B7
:1001E00040235123211531054105510521F021E01E
:1001F00030E040E050E079018A01E628F72808293C
:1002000019293CC0232BD1F1260E371E350146019A
:10021000062E04C096948794779467940A94D2F734
:1002200021E030E040E050E004C0220F331F441FC3
:10023000551F6A95D2F721503040404050402A2146
:100240003B214C215D21211531054105510521F04E
:1002500021E030E040E050E059016A01A628B728CB
:10026000C828D9280BC0821593052CF01C01AA249C
:10027000BB24650103C0EE24FF24870111969C91E5
:10028000D20111968C91981709F445C0992339F041
:10029000A80197012A193B094C095D0906C0A6016E
:1002A00095012E193F09400B510B57FD08C01182D3
:1002B0003382228224833583468357831DC081E0A5
:1002C00081833382228288279927DC01821B930B4A
:1002D000A40BB50B84839583A683B7830DC0220F2F
:1002E000331F441F551F24833583468357838281E0
:1002F000938101979383828324813581468157813D
:10030000DA01C9010197A109B1098F5F9F4FAF4F72
:10031000BF4328F30BC0918333822282EA0CFB1C7B
:100320000C1D1D1DE482F5820683178383E0808304
:10033000248135814681578157FF1AC0C901AA27F8
:1003400097FDA095BA2F81709070A070B0705695EF
:10035000479537952795822B932BA42BB52B848318
:100360009583A683B7838281938101969383828349
:10037000DF0101C0D201CD01CDB7DEB7E2E10C94BF
:100380008C24A0E2B0E0E7ECF1E00C947C246983DB
:100390007A838B839C832D833E834F835887E9E048
:1003A000EE2EF12CEC0EFD1ECE010196B7010E943F
:1003B000D2048E010F5E1F4FCE010596B8010E9438
:1003C000D2048A8991E089278A8BC701B801AE01DE
:1003D000475E5F4F0E9475000E94FD03A096E6E015
:1003E0000C949824A0E2B0E0E8EFF1E00C947C24B7
:1003F00069837A838B839C832D833E834F835887C5
:10040000F9E0EF2EF12CEC0EFD1ECE010196B701A6
:100410000E94D2048E010F5E1F4FCE010596B801D7
:100420000E94D204C701B801AE01475E5F4F0E942F
:1004300075000E94FD03A096E6E00C949824A0E2CB
:10044000B0E0E5E2F2E00C94702469837A838B8358
:100450009C832D833E834F835887CE010196BE0136
:10046000675F7F4F0E94D204CE010596BE016F5E8A
:100470007F4F0E94D2049985923088F0898982301A
:10048000C8F0943019F4823051F404C0843029F457
:10049000923081F487E790E0C6C0923049F420E0C2
:1004A0009A858A89981321E02A87CE010996BBC0D4
:1004B000823049F420E09A858A89981321E02A8BBA
:1004C000CE014196B0C02D843E844F8458886D88FB
:1004D0007E888F88988CEE24FF248701AA24BB2471
:1004E000650140E050E060E070E0E0E0F0E0C10174
:1004F00081709070892BE9F0E60CF71C081D191D1E
:100500009A01AB012A0D3B1D4C1D5D1D80E090E062
:10051000A0E0B0E0E614F7040805190520F481E036
:1005200090E0A0E0B0E0BA01A901480F591F6A1F8E
:100530007B1FAA0CBB1CCC1CDD1C97FE08C081E0F5
:1005400090E0A0E0B0E0A82AB92ACA2ADB2A3196B6
:10055000E032F10549F0660C771C881C991C569412
:10056000479437942794C3CFFA85EA892B893C892D
:100570008B859C85280F391F2E5F3F4F17C0CA01FE
:1005800081709070892B61F016950795F794E79428
:1005900080E090E0A0E0B0E8E82AF92A0A2B1B2BC3
:1005A00076956795579547952F5F3F4F77FDE7CF36
:1005B0000CC0440F551F661F771F17FD4160EE0CDE
:1005C000FF1C001F111F21503040403090E05907A0
:1005D00090E0690790E4790760F32B8F3C8FDB0193
:1005E000CA018F779070A070B07080349105A1051A
:1005F000B10561F447FD0AC0E114F10401051105DC
:1006000029F0405C5F4F6F4F7F4F40781A8EFE1786
:1006100011F081E08A8F4D8F5E8F6F8F78A383E01A
:10062000898FCE0149960E94FD03A096E2E10C94C9
:100630008C24A8E1B0E0EFE1F3E00C947C24698322
:100640007A838B839C832D833E834F83588789E0F5
:10065000E82EF12CEC0EFD1ECE010196B7010E9492
:10066000D2048E010F5E1F4FCE010596B8010E9485
:10067000D2048985823040F08989823028F0C70110
:10068000B8010E944A0501C08FEF6896E6E00C941D
:100690009824A8E1B0E0EFE4F3E00C947C246983B3
:1006A0007A838B839C832D833E834F83588789E095
:1006B000E82EF12CEC0EFD1ECE010196B7010E9432
:1006C000D2048E010F5E1F4FCE010596B8010E9425
:1006D000D2048985823040F08989823028F0C701B0
:1006E000B8010E944A0501C08FEF6896E6E00C94BD
:1006F0009824A8E1B0E0EFE7F3E00C947C24698350
:100700007A838B839C832D833E834F83588789E034
:10071000E82EF12CEC0EFD1ECE010196B7010E94D1
:10072000D2048E010F5E1F4FCE010596B8010E94C4
:10073000D2048985823040F08989823028F0C7014F
:10074000B8010E944A0501C081E06896E6E00C9479
:100750009824ACE0B0E0EFEAF3E00C9480246983E5
:100760007A838B839C83CE010196BE016B5F7F4FA2
:100770000E94D2048D81823061F1823050F1843048
:1007800021F48E81882351F12EC02F81388537FDC9
:1007900020C06E812F3131051CF06623F9F023C093
:1007A0008EE190E0821B930B29853A854B855C8511
:1007B00004C056954795379527958A95D2F76623B5
:1007C000B1F050954095309521953F4F4F4F5F4F79
:1007D0000EC020E030E040E050E009C02FEF3FEFD6
:1007E0004FEF5FE704C020E030E040E050E8B9019F
:1007F000CA012C96E2E00C949C24DF92EF92FF92C7
:100800000F931F93FC01E480F58006811781D1804E
:100810008081823048F480E090E0A0E1B0E0E82AF6
:10082000F92A0A2B1B2BA5C0843009F49FC0823003
:1008300021F4EE24FF24870105C0E114F104010531
:10084000110519F4E0E0F0E096C0628173819FEF3A
:10085000623879070CF05BC022E83FEF261B370BAC
:100860002A3131052CF020E030E040E050E02AC091
:10087000B801A701022E04C0769567955795479554
:100880000A94D2F781E090E0A0E0B0E004C0880FC5
:10089000991FAA1FBB1F2A95D2F70197A109B10979
:1008A0008E219F21A023B1230097A105B10521F03E
:1008B00081E090E0A0E0B0E09A01AB01282B392B59
:1008C0004A2B5B2BDA01C9018F779070A070B07052
:1008D00080349105A105B10539F427FF09C0205CDA
:1008E0003F4F4F4F5F4F04C0215C3F4F4F4F5F4F13
:1008F000E0E0F0E02030A0E03A07A0E04A07A0E402
:100900005A0710F0E1E0F0E079018A0127C0603871
:10091000710564F5FB01E158FF4FD801C7018F77DE
:100920009070A070B07080349105A105B10539F4C4
:10093000E7FE0DC080E490E0A0E0B0E004C08FE3EB
:1009400090E0A0E0B0E0E80EF91E0A1F1B1F17FFA1
:1009500005C016950795F794E794319687E01695AC
:100960000795F794E7948A95D1F705C0EE24FF2404
:100970008701EFEFF0E06E2F679566276795902F60
:100980009F77D794DD24D7948E2F8695492F462BB9
:10099000582F5D29B701CA011F910F91FF90EF9069
:1009A000DF900895FC01DB01408151812281622F9B
:1009B0006F7770E0221F2227221F9381892F880FD3
:1009C000822B282F30E0991F9927991F11969C930D
:1009D000119721153105A9F54115510561057105DD
:1009E00011F482E037C082E89FEF13969C938E93B8
:1009F00012979A01AB0167E0220F331F441F551F66
:100A00006A95D1F783E08C930DC0220F331F441FEA
:100A1000551F12968D919C911397019713969C9355
:100A20008E931297203080E0380780E0480780E4FA
:100A3000580758F314962D933D934D935C93179755
:100A400008952F3F310579F4411551056105710570
:100A500019F484E08C93089564FF03C081E08C93C3
:100A600012C01C9210C02F57304013963C932E9307
:100A7000129783E08C9387E0440F551F661F771F02
:100A80008A95D1F7706414964D935D936D937C9322
:100A9000179708951F93DC01FB019C91923008F495
:100AA00047C08081823008F443C0943051F41196DD
:100AB0001C91843099F58181682F70E0611B710968
:100AC0003FC0843021F0923031F48230B9F181811D
:100AD000882389F12DC011961C9111978230F1F075
:100AE00081811817D9F412962D913C911397828128
:100AF00093818217930794F028173907BCF0149656
:100B00008D919D910D90BC91A02D248135814681C0
:100B10005781281739074A075B0718F4112341F05A
:100B20000AC082179307A407B50740F4112319F0F0
:100B300061E070E005C06FEF7FEF02C060E070E041
:100B4000CB011F910895DF93CF93CDB7DEB7A1E31B
:100B5000B0E0E1E3F0E080818E7F8C93A1E3B0E030
:100B6000E1E3F0E0808182608C93AAE2B0E0EAE207
:100B7000F0E0808180618C93AAE2B0E0EAE2F0E0EC
:100B8000808188608C93A0E4B0E0E0E4F0E08081B4
:100B900080688C93A0E4B0E0E0E4F0E080818F7B9B
:100BA0008C93A0E4B0E0E0E4F0E080818F7D8C9352
:100BB000A0E4B0E0E0E4F0E080818F7E8C93A0E4DC
:100BC000B0E0E0E4F0E08081877F8C93A0E4B0E0C7
:100BD000E0E4F0E0808184608C93A0E4B0E0E0E4A5
:100BE000F0E0808182608C93A0E4B0E0E0E4F0E08B
:100BF00080818E7F8C93E9E2F0E083E38083AAE238
:100C0000B0E0EAE2F0E0808180688C93CF91DF91E0
:100C10000895DF93CF930F92CDB7DEB78983EBE2D0
:100C2000F0E08081829586958770882F90E08170B2
:100C300090700097A1F3ECE2F0E0898180830F903F
:100C4000CF91DF910895DF93CF93CDB7DEB7ECE27C
:100C5000F0E08081CF91DF910895DF93CF9300D0B2
:100C6000CDB7DEB79A83898389819A819093830077
:100C7000809382000F900F90CF91DF9108951F9283
:100C80000F920FB60F9211242F933F934F935F93C0
:100C90006F937F938F939F93AF93BF93EF93FF9344
:100CA000DF93CF93CDB7DEB7E0918200F091830060
:100CB0000995CF91DF91FF91EF91BF91AF919F91F6
:100CC0008F917F916F915F914F913F912F910F90F5
:100CD0000FBE0F901F901895DF93CF93CDB7DEB75F
:100CE000AB970FB6F894DEBF0FBECDBF1BA680E05A
:100CF00090E0ACE0B2E48FA398A7A9A7BAA76FA130
:100D000078A589A59AA520E030E04AEF54E40E9436
:100D10001F02DC01CB018BA39CA3ADA3BEA36BA1DF
:100D20007CA18DA19EA120E030E040E85FE30E941D
:100D3000790388232CF481E090E09AA389A33FC033
:100D40006BA17CA18DA19EA120E03FEF4FE757E46E
:100D50000E94190318164CF56FA178A589A59AA5CC
:100D600020E030E040E251E40E941F02DC01CB01B0
:100D7000BC01CD010E944900DC01CB019AA389A3EB
:100D80000FC088EC90E098A38F8F8F8D98A101976A
:100D9000F1F798A38F8F89A19AA101979AA389A3AC
:100DA00089A19AA1009769F714C06BA17CA18DA1BC
:100DB0009EA10E944900DC01CB019AA389A389A1CD
:100DC0009AA19E8F8D8F8D8D9E8D0197F1F79E8FAD
:100DD0008D8F80E067E041E00E942E2080E061E09E
:100DE00041E00E942E2080E062E041E00E942E203F
:100DF00080E066E041E00E942E2080E065E041E076
:100E00000E942E2080E064E041E00E942E2080E0DD
:100E100063E041E00E942E2080E067E040E00E9415
:100E20001A2180E066E040E00E941A2180E065E03F
:100E300040E00E941A2180E064E041E00E941A2113
:100E400080E063E040E00E941A2180E062E041E03F
:100E50000E941A2180E090E0A0E2B1E4898F9A8F8D
:100E6000AB8FBC8F698D7A8D8B8D9C8D20E030E0AF
:100E70004AEF54E40E941F02DC01CB018D8B9E8B54
:100E8000AF8BB88F6D897E898F89988D20E030E097
:100E900040E85FE30E94790388232CF481E090E02E
:100EA0009C8B8B8B3FC06D897E898F89988D20E0CC
:100EB0003FEF4FE757E40E94190318164CF5698D70
:100EC0007A8D8B8D9C8D20E030E040E251E40E94D1
:100ED0001F02DC01CB01BC01CD010E944900DC01F5
:100EE000CB019C8B8B8B0FC088EC90E09A8B898B0D
:100EF00089899A890197F1F79A8B898B8B899C89CB
:100F000001979C8B8B8B8B899C89009769F714C008
:100F10006D897E898F89988D0E944900DC01CB0103
:100F20009C8B8B8B8B899C89988B8F878F859889DD
:100F30000197F1F7988B8F8780E062E040E00E9494
:100F40001A2180E090E0A0E2B1E48B879C87AD8716
:100F5000BE876B857C858D859E8520E030E04AEFDD
:100F600054E40E941F02DC01CB018F839887A9877C
:100F7000BA876F81788589859A8520E030E040E8DE
:100F80005FE30E94790388232CF481E090E09E8344
:100F90008D833FC06F81788589859A8520E03FEFFA
:100FA0004FE757E40E94190318164CF56B857C85B2
:100FB0008D859E8520E030E040E251E40E941F02D2
:100FC000DC01CB01BC01CD010E944900DC01CB0159
:100FD0009E838D830FC088EC90E09C838B838B81F4
:100FE0009C810197F1F79C838B838D819E81019772
:100FF0009E838D838D819E81009769F714C06F81D8
:10100000788589859A850E944900DC01CB019E8301
:101010008D838D819E819A83898389819A810197AD
:10102000F1F79A83898388E20E94690980E067E08A
:1010300040E00E941A218FE00E94690980E067E089
:1010400040E00E941A2181E00E94690980E067E087
:1010500040E00E941A2186E00E9469098BA5AB96A8
:101060000FB6F894DEBF0FBECDBFCF91DF910895CC
:10107000DF93CF9300D0CDB7DEB78A83198280E0AB
:1010800067E041E00E941A218A810E9469098981F2
:101090000F900F90CF91DF910895DF93CF9300D001
:1010A000CDB7DEB78A83198280E067E040E00E9416
:1010B0001A218A810E94690989810F900F90CF912E
:1010C000DF910895DF93CF9300D00F92CDB7DEB7B5
:1010D0009B838A8319828A819B810097B9F010C013
:1010E00080E067E041E00E941A21EA81FB812081D3
:1010F0008A819B8101969B838A83822F0E94690942
:10110000EA81FB818081882359F702C083E08983CB
:1011100089810F900F900F90CF91DF9108950F93D9
:101120001F93DF93CF93CDB7DEB762970FB6F894D6
:10113000DEBF0FBECDBF6F87788B898B9A8B1A82EB
:101140008CE0FE013396DF01982F1D929A95E9F706
:1011500019828F859889A989BA890097A105B10557
:1011600041F480E067E041E00E941A2180E30E94A0
:1011700069098F859889A989BA89BB230CF046C073
:1011800080E067E041E00E941A218DE20E94690937
:101190008F859889A989BA89B095A09590958195F0
:1011A0009F4FAF4FBF4F8F87988BA98BBA8B2EC0A5
:1011B00089818F5F89838981082F10E08F859889C5
:1011C000A989BA892AE030E040E050E0BC01CD01B5
:1011D0000E943324DC01CB01282F205DCE01039631
:1011E000FC01E00FF11F20838F859889A989BA89B6
:1011F0002AE030E040E050E0BC01CD010E94332401
:10120000DA01C9018F87988BA98BBA8B8F85988952
:10121000A989BA890097A105B10551F614C080E0EB
:1012200067E041E00E941A218981282F30E0CE0139
:101230000396FC01E20FF31F90818981815089831D
:10124000892F0E9469098981882349F78A816296DA
:101250000FB6F894DEBF0FBECDBFCF91DF911F91C7
:101260000F910895DF93CF9300D00F92CDB7DEB7E3
:101270008A836B8319828A81882311F18A81833062
:10128000F8F48B818823E1F08B818131C8F480E010
:1012900067E040E00E941A218A81882F90E0019641
:1012A0000024969587950794969587950794982F8F
:1012B000802D982F8B81890F81500E94690902C06F
:1012C00082E0898389810F900F900F90CF91DF91F9
:1012D0000895DF93CF93CDB7DEB7EA970FB6F894B2
:1012E000DEBF0FBECDBF8AAF19AE80E061E040E047
:1012F0000E941A2180E062E040E00E941A218AAD3B
:10130000982F991F9927991F80E066E0492F0E9426
:101310001A218AAD8295869586958370982F917053
:1013200080E065E0492F0E941A218AAD829586955A
:101330008770982F917080E064E0492F0E941A21F5
:101340008AAD82958F70982F917080E063E0492F6D
:101350000E941A2180E062E041E00E941A2180E0B0
:1013600090E0A0E2B1E48DAB9EABAFABB8AF6DA99E
:101370007EA98FA998AD20E030E04AEF54E40E94A6
:101380001F02DC01CB0189AB9AABABABBCAB69A94B
:101390007AA98BA99CA920E030E040E85FE30E9495
:1013A000790388232CF481E090E098AB8FA73FC0AD
:1013B00069A97AA98BA99CA920E03FEF4FE757E4E0
:1013C0000E94190318164CF56DA97EA98FA998AD36
:1013D00020E030E040E251E40E941F02DC01CB013A
:1013E000BC01CD010E944900DC01CB0198AB8FA765
:1013F0000FC088EC90E09EA78DA78DA59EA50197B4
:10140000F1F79EA78DA78FA598A9019798AB8FA7F5
:101410008FA598A9009769F714C069A97AA98BA923
:101420009CA90E944900DC01CB0198AB8FA78FA536
:1014300098A99CA78BA78BA59CA50197F1F79CA7C2
:101440008BA780E062E040E00E941A2180E090E0FB
:10145000A0E2B1E48FA398A7A9A7BAA76FA178A526
:1014600089A59AA520E030E04AEF54E40E941F02CB
:10147000DC01CB018BA39CA3ADA3BEA36BA17CA17C
:101480008DA19EA120E030E040E85FE30E94790357
:1014900088232CF481E090E09AA389A33FC06BA13C
:1014A0007CA18DA19EA120E03FEF4FE757E40E9471
:1014B000190318164CF56FA178A589A59AA520E007
:1014C00030E040E251E40E941F02DC01CB01BC018C
:1014D000CD010E944900DC01CB019AA389A30FC072
:1014E00088EC90E098A38F8F8F8D98A10197F1F7EA
:1014F00098A38F8F89A19AA101979AA389A389A103
:101500009AA1009769F714C06BA17CA18DA19EA13F
:101510000E944900DC01CB019AA389A389A19AA169
:101520009E8F8D8F8D8D9E8D0197F1F79E8F8D8F64
:101530008AAD869586958695982F917080E066E0B5
:10154000492F0E941A218AAD86958695982F917011
:1015500080E065E0492F0E941A218AAD8695982F78
:10156000917080E064E0492F0E941A218AAD982F83
:10157000917080E063E0492F0E941A2180E062E0D0
:1015800041E00E941A2180E090E0A0E2B1E4898F5E
:101590009A8FAB8FBC8F698D7A8D8B8D9C8D20E05F
:1015A00030E04AEF54E40E941F02DC01CB018D8B36
:1015B0009E8BAF8BB88F6D897E898F89988D20E047
:1015C00030E040E85FE30E94790388232CF481E057
:1015D00090E09C8B8B8B3FC06D897E898F89988D25
:1015E00020E03FEF4FE757E40E94190318164CF52F
:1015F000698D7A8D8B8D9C8D20E030E040E251E446
:101600000E941F02DC01CB01BC01CD010E944900F8
:10161000DC01CB019C8B8B8B0FC088EC90E09A8B0C
:10162000898B89899A890197F1F79A8B898B8B89A4
:101630009C8901979C8B8B8B8B899C89009769F780
:1016400014C06D897E898F89988D0E944900DC01C4
:10165000CB019C8B8B8B8B899C89988B8F878F85FB
:1016600098890197F1F7988B8F8780E062E040E0DE
:101670000E941A2180E090E0A0E2B1E48B879C8771
:10168000AD87BE876B857C858D859E8520E030E0AB
:101690004AEF54E40E941F02DC01CB018F8398873C
:1016A000A987BA876F81788589859A8520E030E09F
:1016B00040E85FE30E94790388232CF481E090E006
:1016C0009E838D833FC06F81788589859A8520E0D0
:1016D0003FEF4FE757E40E94190318164CF56B854E
:1016E0007C858D859E8520E030E040E251E40E94BB
:1016F0001F02DC01CB01BC01CD010E944900DC01CD
:10170000CB019E838D830FC088EC90E09C838B83FC
:101710008B819C810197F1F79C838B838D819E81C6
:1017200001979E838D838D819E81009769F714C0F8
:101730006F81788589859A850E944900DC01CB01FB
:101740009E838D838D819E819A83898389819A81ED
:101750000197F1F79A83898389ADEA960FB6F894D9
:10176000DEBF0FBECDBFCF91DF910895DF93CF9342
:10177000CDB7DEB7F89481E0CF91DF910895DF9384
:10178000CF93CDB7DEB7789481E0CF91DF91089504
:10179000DF93CF93CDB7DEB7F89481E0CF91DF919F
:1017A0000895DF93CF93CDB7DEB727970FB6F894A0
:1017B000DEBF0FBECDBF9D838C836E834F838AE1D6
:1017C00090E00E94A90E9A83898389819A8100976B
:1017D00009F46FC08091840090918500009741F4D6
:1017E00089819A8190938500809384000E94380EAD
:1017F0008E81823010F081E08E83E981FA81118E32
:10180000108EE981FA818E81868BE981FA818F8140
:10181000878BE981FA818C819D8191838083898185
:101820009A8102960E943F0F89819A810C960E94AC
:101830003F0FE981FA8189819A8191878087E981C7
:10184000FA8189819A81938B828B8E81282F30E057
:1018500085E090E0821B930BE981FA81958784876C
:10186000E981FA81968980918600891728F4E981B7
:10187000FA81868980938600E981FA818689282FFA
:1018800030E0C901880F991F880F991F880F991F91
:10189000820F931FAC0143575F4F89819A819C014E
:1018A0002E5F3F4FCA01B9010E944F0F81E08B8329
:1018B00002C08FEF8B838B8127960FB6F894DEBF23
:1018C0000FBECDBFCF91DF910895DF93CF9300D0AE
:1018D00000D000D0CDB7DEB79C838B837E836D8331
:1018E00020918700309188008B819C81820F931F0B
:1018F0009A838983809184009091850002960E944A
:101900000710E0918400F091850089819A8193838A
:101910008283209187003091880089819A81821783
:10192000930770F48091B3009091B40020918400EB
:10193000309185002E5F3F4FB9010E949B0F0DC073
:101940008091B1009091B200209184003091850087
:101950002E5F3F4FB9010E949B0F8D819E810097A2
:1019600061F080918400909185009C01245F3F4F3D
:101970008D819E81B9010E949B0F26960FB6F89427
:10198000DEBF0FBECDBFCF91DF910895DF93CF9320
:1019900000D0CDB7DEB73AC0F894E091BA00F0912C
:1019A000BB00868197819A83898389819A810C966D
:1019B0000E940710789489819A8102960E940710EC
:1019C000E981FA81968980918600891728F4E98156
:1019D000FA81868980938600E981FA818689282F99
:1019E00030E0C901880F991F880F991F880F991F30
:1019F000820F931FAC0143575F4F89819A819C01ED
:101A00002E5F3F4FCA01B9010E944F0F8091B50070
:101A1000882309F0C1CF0F900F90CF91DF910895E7
:101A2000DF93CF9300D000D0CDB7DEB70E940D1B5F
:101A30002091890030918A00821B930B90938C0037
:101A400080938B0085C080918700909188000196DB
:101A5000909388008093870080918B0090918C00F8
:101A6000019790938C0080938B00809187009091D8
:101A70008800009709F064C08091B1009091B20095
:101A80009A8389838091B3009091B4009093B200BF
:101A90008093B10089819A819093B4008093B300C0
:101AA0004FC0E091B100F091B2000580F681E02DC9
:101AB000868197819C838B83EB81FC81228133819A
:101AC00080918700909188008217930708F440C0A6
:101AD000F8948B819C8102960E940710EB81FC8117
:101AE00084899589009729F08B819C810C960E94AE
:101AF00007107894EB81FC81968980918600891784
:101B000028F4EB81FC81868980938600EB81FC813F
:101B10008689282F30E0C901880F991F880F991FE7
:101B2000880F991F820F931FAC0143575F4F8B8122
:101B30009C819C012E5F3F4FCA01B9010E944F0F4B
:101B4000E091B100F091B2008081882309F0A9CF23
:101B500080918B0090918C00009709F074CF809158
:101B600087009091880090938A00809389000F905D
:101B70000F900F900F90CF91DF910895DF93CF9347
:101B800000D0CDB7DEB70E94C60C0E94100D0AC06F
:101B900080918600882309F466C080918600815078
:101BA0008093860080918600282F30E0C901880F3D
:101BB000991F880F991F880F991F820F931FFC018F
:101BC000E357FF4F8081882319F380918600282FE7
:101BD00030E0C901880F991F880F991F880F991F3E
:101BE000820F931F83579F4F9A838983E981FA81DC
:101BF0000180F281E02D82819381E981FA819283D3
:101C00008183E981FA812181328189819A810396D8
:101C10002817390759F4E981FA810180F281E02D12
:101C200082819381E981FA8192838183E981FA81BA
:101C30000180F281E02D86819781909385008093C9
:101C40008400E0918400F091850040815181809171
:101C5000840090918500E0918400F09185002789AF
:101C6000622FFA0109950F900F90CF91DF9108959F
:101C7000DF93CF930F92CDB7DEB7198213C089815E
:101C8000282F30E0C901880F991F880F991F880FEE
:101C9000991F820F931F83579F4F0E94150F8981B1
:101CA0008F5F89838981823050F38FE990E00E94B1
:101CB000150F88EA90E00E94150F85EB90E00E94D6
:101CC000150F8FE990E09093B2008093B10088EAFD
:101CD00090E09093B4008093B3000F90CF91DF9188
:101CE0000895DF93CF9300D000D00F92CDB7DEB729
:101CF0009D838C83EC81FD810580F681E02D8681BA
:101D000097819B838A838A819B810C960E9407100E
:101D10008A819B819C01245F3F4F85EB90E0B90154
:101D20000E944F0FEA81FB819689E0918400F09137
:101D300085008689981718F081E0898301C019828F
:101D400089810F900F900F900F900F90CF91DF919E
:101D50000895DF93CF9300D000D0CDB7DEB79C833A
:101D60008B831A8219820E94771A8091BE0090910B
:101D7000BF002B813C81820F931F23E0883E920796
:101D800018F52091BE003091BF008B819C81280FF7
:101D9000391F8091BE009091BF0082179307A0F475
:101DA0008091BE009091BF0080549F4F9A83898399
:101DB0002091BE003091BF008B819C81820F931FC8
:101DC0009093BF008093BE000E94831A89819A81FC
:101DD0000F900F900F900F90CF91DF910895DF93A8
:101DE000CF9300D0CDB7DEB79A8389830F900F9041
:101DF000CF91DF910895DF93CF93CDB7DEB71092E7
:101E0000BF001092BE00CF91DF910895DF93CF9372
:101E1000CDB7DEB72091BE003091BF0088EE93E0D1
:101E2000821B930BCF91DF910895DF93CF9300D066
:101E3000CDB7DEB79A83898389819A810396E98138
:101E4000FA8192838183E981FA818FEF9FEF9483F6
:101E5000838389819A810396E981FA8196838583B8
:101E600089819A810396E981FA8190878783E98144
:101E7000FA8110820F900F90CF91DF910895DF9338
:101E8000CF9300D0CDB7DEB79A838983E981FA81F9
:101E9000118610860F900F90CF91DF910895DF93F8
:101EA000CF9300D000D000D0CDB7DEB79C838B831A
:101EB0007E836D83EB81FC81818192819A8389830A
:101EC000E981FA8182819381ED81FE81938382830E
:101ED000EB81FC8181819281ED81FE8195838483F8
:101EE000E981FA810280F381E02D8D819E819583C5
:101EF00084838D819E81E981FA81938382838D81A0
:101F00009E81EB81FC8192838183ED81FE818B81B7
:101F10009C8191878087EB81FC8180818F5FEB8141
:101F2000FC81808326960FB6F894DEBF0FBECDBF2E
:101F3000CF91DF910895DF93CF93CDB7DEB7289788
:101F40000FB6F894DEBF0FBECDBF9E838D8378871A
:101F50006F83EF81F885808191819A83898389815C
:101F60009A812FEF8F3F920739F4ED81FE818781AF
:101F700090859C838B8318C08D819E8103969C8362
:101F80008B8306C0EB81FC81828193819C838B8350
:101F9000EB81FC810280F381E02D208131818981F8
:101FA0009A818217930770F7EB81FC81828193817C
:101FB000EF81F88593838283EF81F8850280F38136
:101FC000E02D8F81988595838483EF81F8858B81BF
:101FD0009C81958384838F819885EB81FC81938399
:101FE0008283EF81F8858D819E8191878087ED8145
:101FF000FE8180818F5FED81FE81808328960FB600
:10200000F894DEBF0FBECDBFCF91DF910895DF936F
:10201000CF9300D000D0CDB7DEB79C838B83EB810C
:10202000FC81A281B381EB81FC818481958115962D
:102030009C938E931497EB81FC81A481B581EB81F5
:10204000FC818281938113969C938E931297EB81EE
:10205000FC81808591859A838983E981FA81218138
:1020600032818B819C812817390741F4EB81FC81F7
:1020700084819581E981FA8192838183EB81FC815E
:1020800011861086E981FA8180818150E981FA8187
:1020900080830F900F900F900F90CF91DF91089554
:1020A000DF93CF93CDB7DEB728970FB6F894DEBF96
:1020B0000FBECDBF9C838B837E836D8358874F83F8
:1020C000EB81FC8181E180838B819C8101979C83E2
:1020D0008B83EB81FC8182E280838B819C810197E1
:1020E0009C838B83EB81FC8183E380838B819C8148
:1020F00001979C838B838D819E819A8389838981BB
:10210000EB81FC8180838B819C8101979C838B83F5
:1021100089819A81892F99279A8389838981EB8183
:10212000FC8180838B819C8101979C838B83EB81D5
:10213000FC8110828B819C8101979C838B83EB8136
:10214000FC8180E880838B819C8101979C838B83B9
:10215000EB81FC8110828B819C8101979C838B8316
:10216000EB81FC8182E080838B819C8101979C8341
:102170008B83EB81FC8183E080838B819C81019741
:102180009C838B83EB81FC8184E080838B819C81A9
:1021900001979C838B83EB81FC8185E080838B811D
:1021A0009C8101979C838B83EB81FC8186E08083FB
:1021B0008B819C8101979C838B83EB81FC8187E0E1
:1021C00080838B819C8101979C838B83EB81FC8135
:1021D00088E080838B819C8101979C838B83EB813A
:1021E000FC8189E080838B819C8101979C838B8318
:1021F000EB81FC8180E180838B819C8101979C83B2
:102200008B83EB81FC8181E180838B819C810197B1
:102210009C838B83EB81FC8182E180838B819C8119
:1022200001979C838B83EB81FC8183E180838B818D
:102230009C8101979C838B83EB81FC8184E180836B
:102240008B819C8101979C838B83EB81FC8185E151
:1022500080838B819C8101979C838B83EB81FC81A4
:1022600086E180838B819C8101979C838B83EB81AA
:10227000FC8187E180838B819C8101979C838B8388
:10228000EB81FC8188E180838B819C8101979C8319
:102290008B83EB81FC8189E180838B819C81019719
:1022A0009C838B83EB81FC8180E280838B819C818A
:1022B00001979C838B83EB81FC8181E280838B81FE
:1022C0009C8101979C838B83EB81FC8182E28083DC
:1022D0008B819C8101979C838B83EB81FC8183E2C2
:1022E00080838B819C8101979C838B838F819885D0
:1022F0009A8389838981EB81FC8180838B819C8196
:1023000001979C838B8389819A81892F99279A834E
:1023100089838981EB81FC8180838B819C810197FA
:102320009C838B83EB81FC8186E280838B819C8103
:1023300001979C838B83EB81FC8187E280838B8177
:102340009C8101979C838B83EB81FC8188E2808355
:102350008B819C8101979C838B83EB81FC8189E23B
:1023600080838B819C8101979C838B83EB81FC8193
:1023700080E380838B819C8101979C838B83EB819D
:10238000FC8181E380838B819C8101979C838B837B
:102390008B819C8128960FB6F894DEBF0FBECDBF0F
:1023A000CF91DF910895DF93CF93CDB7DEB70E9431
:1023B000C312A091A804B091A904CD91CDBFDD9125
:1023C000DEBFFF91EF91DF91CF91BF91AF919F91D0
:1023D0008F917F916F915F914F913F912F911F91BD
:1023E0000F91FF90EF90DF90CF90BF90AF909F90B4
:1023F0008F907F906F905F904F903F902F901F90A5
:102400000F900FBE0F90089581E0CF91DF91089556
:10241000DF93CF93CDB7DEB7CF91DF9108950F92C1
:102420000FB6F8940F921F9211242F923F924F9261
:102430005F926F927F928F929F92AF92BF92CF9254
:10244000DF92EF92FF920F931F932F933F934F933F
:102450005F936F937F938F939F93AF93BF93CF932C
:10246000DF93EF93FF93A091A804B091A9040DB658
:102470000D920EB60D920E94171CA091A804B09167
:10248000A904CD91CDBFDD91DEBFFF91EF91DF912A
:10249000CF91BF91AF919F918F917F916F915F91FC
:1024A0004F913F912F911F910F91FF90EF90DF90EF
:1024B000CF90BF90AF909F908F907F906F905F90E4
:1024C0004F903F902F901F900F900FBE0F90089548
:1024D0000F920FB6F8940F921F9211242F923F92F1
:1024E0004F925F926F927F928F929F92AF92BF9224
:1024F000CF92DF92EF92FF920F931F932F933F9310
:102500004F935F936F937F938F939F93AF93BF93FB
:10251000CF93DF93EF93FF93A091A804B091A90408
:102520000DB60D920EB60D920E94421B0E94171C12
:10253000A091A804B091A904CD91CDBFDD91DEBFDB
:10254000FF91EF91DF91CF91BF91AF919F918F91CB
:102550007F916F915F914F913F912F911F910F91BB
:10256000FF90EF90DF90CF90BF90AF909F908F90B3
:102570007F906F905F904F903F902F901F900F90A3
:102580000FBE0F900895DF93CF9300D000D000D0FE
:10259000CDB7DEB780E49FE1A0E0B0E08B839C8301
:1025A000AD83BE838B819C81AD81BE81689415F81B
:1025B000B695A795979587951694D1F78B839C83AD
:1025C000AD83BE838B819C81AD81BE810197A109C2
:1025D000B1098B839C83AD83BE838B8189838B817F
:1025E0009C81AD81BE81892F9A2FAB2FBB278B8316
:1025F0009C83AD83BE838B818A83EBE4F0E08A8188
:102600008083EAE4F0E0898180838BE08983EEE4D3
:10261000F0E089818083E9E5F0E080818983898128
:1026200080618983E9E5F0E08981808326960FB691
:10263000F894DEBF0FBECDBFCF91DF9108950E9409
:1026400068121895DF93CF93CDB7DEB728970FB6F2
:10265000F894DEBF0FBECDBF8F8368871A821982C0
:102660008F81882309F48CC08FE190E00E94A90E2D
:102670009E838D838D819E81009709F481C08F8117
:10268000282F30E08885882F90E0AC01249FC0017E
:10269000259F900D349F900D112401969C838B8370
:1026A0008B819C810E94A90EED81FE8191838083A4
:1026B000ED81FE8180819181009709F45DC0ED81FB
:1026C000FE81408151818F81282F30E08885882FBD
:1026D00090E0BC01269FC001279F900D369F900D72
:1026E0001124840F951FED81FE8193838283ED81F8
:1026F000FE81128EED81FE8180819181ED81FE81CE
:1027000095838483ED81FE81408151818F81882F63
:1027100090E09C01215030408885882F90E0BC01DA
:10272000269FC001279F900D369F900D1124840F86
:10273000951FED81FE8197838683ED81FE818F81D8
:10274000838FED81FE818885848FED81FE818FEFFF
:10275000858FED81FE818FEF868F8D819E8108961A
:102760000E94150F8D819E8141960E94150F8D81CB
:102770009E819A83898304C08D819E810E94EF0E81
:1027800089819A8128960FB6F894DEBF0FBECDBF1F
:10279000CF91DF910895DF93CF9300D0CDB7DEB70F
:1027A0008FE190E00E94A90E9A83898389819A81A2
:1027B0000097A9F1E981FA8113821282E981FA81F5
:1027C00011821082E981FA8115821482E981FA81ED
:1027D00017821682E981FA81128EE981FA8181E0FD
:1027E000838FE981FA81148EE981FA818FEF858FD9
:1027F000E981FA818FEF868F89819A8108960E94FC
:10280000150F89819A8141960E94150F89819A81BD
:1028100060E070E040E050E020E00E9435148981E3
:102820009A810F900F90CF91DF910895DF93CF930E
:1028300000D000D0CDB7DEB78B836C838B8160E096
:102840000E9422139A83898389819A81009721F0BB
:10285000E981FA818C81828F89819A810F900F9012
:102860000F900F90CF91DF910895DF93CF93CDB765
:10287000DEB72C970FB6F894DEBF0FBECDBF9E8398
:102880008D8378876F835A8749872B8719820FB684
:10289000F8940F92ED81FE81928DED81FE81838D02
:1028A0009817D8F48D819E812F813885B9014B8589
:1028B0000E948D16ED81FE818189882349F08D81EA
:1028C0009E8141960E94B31C813011F40E940F1228
:1028D0000F900FBE81E08C875CC089859A85009738
:1028E00021F40F900FBE1C8654C08981882331F4D7
:1028F000CE0102960E941B1D81E089830F900FBEBE
:102900000E94771A0FB6F8940F92ED81FE81858DA3
:102910008F3F19F4ED81FE81158EED81FE81868D4C
:102920008F3F19F4ED81FE81168E0F900FBECE0100
:1029300002969E01275F3F4FB9010E94341D8823F4
:1029400009F58D819E810E9402188823A1F08D8156
:102950009E81089629853A85B9010E947D1C8D814A
:102960009E810E947B170E94831A882309F08FCFD3
:102970000E940F128CCF8D819E810E947B170E9436
:10298000831A85CF8D819E810E947B170E94831AB6
:102990001C868C852C960FB6F894DEBF0FBECDBF7B
:1029A000CF91DF910895DF93CF93CDB7DEB729970D
:1029B0000FB6F894DEBF0FBECDBF9C838B837E83A2
:1029C0006D8358874F8329871982EB81FC81928D13
:1029D000EB81FC81838D981740F58B819C812D8143
:1029E0003E81B90149850E948D16EB81FC81868D5F
:1029F0008F3F89F4EB81FC818189882399F08B8159
:102A00009C8141960E94B31C882361F0EF81F88578
:102A100081E0808307C0EB81FC81868D8F5FEB8135
:102A2000FC81868F81E08A8301C01A828A8129967F
:102A30000FB6F894DEBF0FBECDBFCF91DF910895E2
:102A4000DF93CF93CDB7DEB72E970FB6F894DEBFE6
:102A50000FBECDBF98878F837A8769875C874B8746
:102A60002D871B820FB6F8940F92EF81F885828D27
:102A7000882309F44BC0EF81F885868197819A837A
:102A800089838F81988529853A85B9010E943317FA
:102A90008D85882311F5EF81F885828D8150EF8136
:102AA000F885828FEF81F88580819181009731F4DC
:102AB0000E942A1FEF81F88593838283EF81F88536
:102AC00080858823F1F08F81988508960E94B31C39
:102AD0008130B9F40E940F1214C0EF81F88589810A
:102AE0009A8197838683EF81F8858189882349F0CD
:102AF0008F81988541960E94B31C882311F00E9413
:102B00000F120F900FBE81E08E876DC08B859C8564
:102B1000009721F40F900FBE1E8665C08B8188231D
:102B200031F4CE0104960E941B1D81E08B830F902F
:102B30000FBE0E94771A0FB6F8940F92EF81F885B6
:102B4000858D8F3F19F4EF81F885158EEF81F8851B
:102B5000868D8F3F19F4EF81F885168E0F900FBE8A
:102B6000CE0104969E01255F3F4FB9010E94341D9E
:102B7000882391F58F8198850E94CF17882329F1AA
:102B8000EF81F88580819181009759F40FB6F89410
:102B90000F92EF81F885828193810E943C1F0F90F4
:102BA0000FBE8F81988541962B853C85B9010E9487
:102BB0007D1C8F8198850E947B170E94831A882331
:102BC00009F050CF0E940F124DCF8F8198850E943F
:102BD0007B170E94831A46CF8F8198850E947B17AE
:102BE0000E94831A1E868E852E960FB6F894DEBF3D
:102BF0000FBECDBFCF91DF910895DF93CF93CDB7B7
:102C0000DEB728970FB6F894DEBF0FBECDBF9C830A
:102C10008B837E836D8358874F831982EB81FC8180
:102C2000828D882371F18B819C812D813E81B90138
:102C30000E943317EB81FC81828D8150EB81FC81F6
:102C4000828FEB81FC81858D8F3F89F4EB81FC8144
:102C50008085882399F08B819C8108960E94B31C03
:102C6000882361F0EF81F88581E0808307C0EB81E4
:102C7000FC81858D8F5FEB81FC81858F81E08A836C
:102C800001C01A828A8128960FB6F894DEBF0FBE63
:102C9000CDBFCF91DF910895DF93CF9300D00F92F6
:102CA000CDB7DEB79B838A830FB6F8940F92EA8183
:102CB000FB81828D89830F900FBE89810F900F90C9
:102CC0000F90CF91DF910895DF93CF9300D00F92B3
:102CD000CDB7DEB79B838A83EA81FB81828D8983AE
:102CE00089810F900F900F90CF91DF910895DF931E
:102CF000CF9300D0CDB7DEB79A838983E981FA817B
:102D0000808191810E94EF0E89819A810E94EF0E4D
:102D10000F900F90CF91DF910895DF93CF9300D064
:102D200000D00F92CDB7DEB79A8389837C836B8303
:102D30004D83E981FA81848D882391F4E981FA81B8
:102D400080819181009709F07FC0E981FA818281B9
:102D500093810E94BC1FE981FA811382128274C0A0
:102D60008D81882399F5E981FA8164817581E981F2
:102D7000FA81848D482F50E02B813C81CB01B90131
:102D80000E94A724E981FA8124813581E981FA81B1
:102D9000848D882F90E0820F931FE981FA819583BB
:102DA0008483E981FA8124813581E981FA818281F4
:102DB00093812817390708F447C0E981FA81808197
:102DC0009181E981FA81958384833EC0E981FA810A
:102DD00066817781E981FA81848D482F50E02B81CB
:102DE0003C81CB01B9010E94A724E981FA812681A7
:102DF0003781E981FA81848D882F90E090958195C3
:102E00009F4F820F931FE981FA8197838683E9811F
:102E1000FA8126813781E981FA81808191812817A1
:102E2000390790F4E981FA8122813381E981FA81BD
:102E3000848D882F90E0909581959F4F820F931FEE
:102E4000E981FA8197838683E981FA81828D8F5F98
:102E5000E981FA81828F0F900F900F900F900F9061
:102E6000CF91DF910895DF93CF9300D000D0CDB7FD
:102E7000DEB79A8389837C836B83E981FA818081C1
:102E80009181009789F1E981FA8126813781E98171
:102E9000FA81848D882F90E0820F931FE981FA8157
:102EA00097838683E981FA8126813781E981FA81D6
:102EB000828193812817390740F0E981FA81808166
:102EC0009181E981FA8197838683E981FA8146813C
:102ED0005781E981FA81848D282F30E08B819C8194
:102EE000BA01A9010E94A7240F900F900F900F9094
:102EF000CF91DF910895DF93CF9300D0CDB7DEB7A8
:102F00009A8389830FB6F8940F9215C0E981FA81EC
:102F100081898823A9F089819A8141960E94B31CF6
:102F2000882311F00E94911DE981FA81868D8150DC
:102F3000E981FA81868FE981FA81868D181634F34A
:102F4000E981FA818FEF868F0F900FBE0FB6F8944C
:102F50000F9215C0E981FA8180858823A9F08981C3
:102F60009A8108960E94B31C882311F00E94911D3B
:102F7000E981FA81858D8150E981FA81858FE98126
:102F8000FA81858D181634F3E981FA818FEF858FE8
:102F90000F900FBE0F900F90CF91DF910895DF93A8
:102FA000CF9300D00F92CDB7DEB79B838A830FB645
:102FB000F8940F92EA81FB81828D1982882311F4A3
:102FC00081E089830F900FBE89810F900F900F9041
:102FD000CF91DF910895DF93CF9300D00F92CDB7BB
:102FE000DEB79B838A83EA81FB81828D19828823E5
:102FF00011F481E0898389810F900F900F90CF9118
:10300000DF910895DF93CF9300D00F92CDB7DEB755
:103010009B838A830FB6F8940F92EA81FB81928D8D
:10302000EA81FB81838D1982981711F481E08983ED
:103030000F900FBE89810F900F900F90CF91DF916D
:103040000895DF93CF9300D00F92CDB7DEB79B8367
:103050008A83EA81FB81928DEA81FB81838D1982CB
:10306000981711F481E0898389810F900F900F9058
:10307000CF91DF910895AF92BF92CF92DF92EF92FE
:10308000FF920F931F93DF93CF93CDB7DEB7649773
:103090000FB6F894DEBF0FBECDBF9F838E837987B6
:1030A00068875B874A873D872C870E87F88AEF867B
:1030B000DA8AC98ABC8AAB8A8A859B8529893A893A
:1030C000B9010E94C41E9C838B838B819C810097D5
:1030D00009F499C0EB81FC812789308D8A859B8515
:1030E0000197820F931F9A8389838B819C81288506
:1030F0003985EB89FC89AA85BB85B9014E859F017D
:103100008D010E94A51D89819A812E813F814C8568
:103110005D85B9010E945010EB81FC819183808311
:103120008F859889009731F0EF85F8898B819C8194
:10313000918380830FB6F8940F928091AB048F5FD8
:103140008093AB048091A8049091A904009769F43E
:103150008B819C819093A9048093A8048091AB04F7
:103160008130A9F40E94001E12C08091B00488230F
:1031700071F4E091A804F091A90496898E858917CD
:1031800030F08B819C819093A9048093A804EB81FB
:10319000FC8196898091AE04891728F4EB81FC812B
:1031A00086898093AE048091B5048F5F8093B504C7
:1031B000EB81FC8196898091AF04891728F4EB811B
:1031C000FC8186898093AF04EB81FC818689282F5E
:1031D00030E0C901880F991F880F991F880F991F28
:1031E000820F931FAC014A545B4F8B819C819C01E1
:1031F0002E5F3F4FCA01B9010E944F0F81E08D83BE
:103200000F900FBE02C08FEF8D838D81813071F4DE
:103210008091B004882351F0E091A804F091A904B2
:1032200096898E85981710F40E940F128D816496EE
:103230000FB6F894DEBF0FBECDBFCF91DF911F91C7
:103240000F91FF90EF90DF90CF90BF90AF900895D7
:10325000DF93CF9300D000D000D0CDB7DEB79C83F2
:103260008B830FB6F8940F922091A8043091A90493
:103270008B819C818217930711F41C821B828B81A6
:103280009C81009739F48091A8049091A9049E83B1
:103290008D8304C08B819C819E838D838D819E81D3
:1032A0009A83898389819A8102960E940710E98115
:1032B000FA8184899589009729F089819A810C96F1
:1032C0000E94071089819A819C012E5F3F4F82E006
:1032D00095E0B9010E944F0F8091AA048F5F8093FF
:1032E000AA048091B5048F5F8093B5040F900FBE40
:1032F0008091B004882331F08B819C81009711F478
:103300000E940F1226960FB6F894DEBF0FBECDBFF7
:10331000CF91DF910895DF93CF93CDB7DEB7289794
:103320000FB6F894DEBF0FBECDBF9E838D83788726
:103330006F8319820E94771AED81FE81208131818D
:103340008F819885820F931F9C838B83ED81FE81F3
:10335000208131818091AC049091AD048217930754
:10336000A8F4ED81FE81208131818B819C818217BF
:10337000930700F52091AC043091AD048B819C81C2
:1033800028173907B8F481E0898314C0ED81FE81E4
:10339000208131818B819C818217930748F0209195
:1033A000AC043091AD048B819C812817390710F44F
:1033B00081E08983ED81FE818B819C819183808373
:1033C0008981882359F08091A8049091A9040296DC
:1033D0000E9407108B819C810E947B1E0E94831A91
:1033E0008A838A81882311F40E940F1228960FB6CF
:1033F000F894DEBF0FBECDBFCF91DF910895DF936C
:10340000CF9300D000D00F92CDB7DEB79D838C83D1
:1034100019828C819D810097D1F00E94771A2091AA
:10342000AC043091AD048C819D81820F931F9B83EE
:103430008A838091A8049091A90402960E940710A3
:103440008A819B810E947B1E0E94831A89838981C5
:10345000882311F40E940F120F900F900F900F907D
:103460000F90CF91DF910895AF92BF92CF92DF92EC
:10347000EF92FF920F93DF93CF930F92CDB7DEB70A
:1034800020E630E08BE99DE1B90145E550E020E020
:1034900030E000E0EE24FF24CC24DD24AA24BB2469
:1034A0000E943B1889838981813051F4F89481E02E
:1034B0008093B0041092AD041092AC040E94D3111A
:1034C0000F90CF91DF910F91FF90EF90DF90CF9011
:1034D000BF90AF900895DF93CF93CDB7DEB7F89448
:1034E0001092B0040E940812CF91DF910895DF93EB
:1034F000CF93CDB7DEB78091B1048F5F8093B104D5
:10350000CF91DF910895DF93CF9300D000D0CDB756
:10351000DEB71A820FB6F8940F928091B1048150F1
:103520008093B1048091B104882309F06CC080912C
:10353000AB04882309F467C0198241C0E091FE04FE
:10354000F091FF04868197819C838B838B819C8182
:103550000C960E9407108B819C8102960E94071096
:10356000EB81FC8196898091AF04891728F4EB8167
:10357000FC8186898093AF04EB81FC818689282FAA
:1035800030E0C901880F991F880F991F880F991F74
:10359000820F931F8A549B4F2B813C812E5F3F4F9C
:1035A000B9010E944F0FEB81FC819689E091A8043C
:1035B000F091A9048689981710F081E089838091A1
:1035C000F904882309F0BACF8091B204882371F0FE
:1035D00007C00E94421B8091B20481508093B204C4
:1035E0008091B2048823A9F781E0898389818130A1
:1035F00021F08091B304813031F481E08A8310920C
:10360000B3040E940F120F900FBE8A810F900F908B
:103610000F900F90CF91DF910895DF93CF9300D05B
:10362000CDB7DEB70FB6F8940F928091AC049091AD
:10363000AD049A8389830F900FBE89819A810F9080
:103640000F90CF91DF910895DF93CF9300D00F9229
:10365000CDB7DEB719828091AC049091AD049B8305
:103660008A838A819B810F900F900F90CF91DF9179
:103670000895DF93CF93CDB7DEB78091AB04CF91A0
:10368000DF910895DF93CF9300D000D000D0CDB765
:10369000DEB78091B104882309F0BBC08091AC04EF
:1036A0009091AD0401969093AD048093AC04809109
:1036B000AC049091AD040097D1F58091F504909100
:1036C000F6049C838B838091F7049091F804909387
:1036D000F6048093F5048B819C819093F804809389
:1036E000F7048091B4048F5F8093B404E091F504F3
:1036F000F091F6048081882339F48FEF9FEF909347
:10370000800080937F0013C0E091F504F091F604EF
:103710000580F681E02D868197819E838D83ED81E2
:10372000FE81828193819093800080937F0020911D
:10373000AC043091AD0480917F00909180002817F7
:10374000390708F46BC0E091F504F091F60480812C
:10375000882339F48FEF9FEF9093800080937F0050
:103760005DC0E091F504F091F6040580F681E02D4E
:10377000868197819E838D83ED81FE8182819381F5
:103780009A8389832091AC043091AD0489819A8118
:103790002817390738F489819A81909380008093A3
:1037A0007F003CC08D819E8102960E940710ED81B2
:1037B000FE8184899589009729F08D819E810C96E0
:1037C0000E940710ED81FE8196898091AF048917D0
:1037D00028F4ED81FE8186898093AF04ED81FE811E
:1037E0008689282F30E0C901880F991F880F991FFB
:1037F000880F991F820F931FAC014A545B4F8D8134
:103800009E819C012E5F3F4FCA01B9010E944F0F5C
:103810009ACF8091B2048F5F8093B20426960FB640
:10382000F894DEBF0FBECDBFCF91DF910895DF9337
:10383000CF9300D0CDB7DEB78091B104882349F093
:1038400081E08093B30454C08091AF048150809391
:10385000AF048091AF04282F30E0C901880F991F71
:10386000880F991F880F991F820F931FFC01EA543C
:10387000FB4F8081882341F38091AF04282F30E0F3
:10388000C901880F991F880F991F880F991F820FF0
:10389000931F8A549B4F9A838983E981FA8101801F
:1038A000F281E02D82819381E981FA819283818383
:1038B000E981FA812181328189819A8103962817D1
:1038C000390759F4E981FA810180F281E02D828182
:1038D0009381E981FA8192838183E981FA81018070
:1038E000F281E02D868197819093A9048093A804AA
:1038F0000F900F90CF91DF910895DF93CF9300D079
:1039000000D000D0CDB7DEB79C838B837E836D83E0
:103910004B815C818091A8049091A9049C01245F53
:103920003F4FCA01B9010E949B0F8091A80490915A
:10393000A90402960E9407102091AC043091AD04B6
:103940008D819E81820F931F9A83898389819A81B9
:103950000E947B1E26960FB6F894DEBF0FBECDBF29
:10396000CF91DF910895DF93CF9300D000D00F92D5
:10397000CDB7DEB79D838C83EC81FD810580F68118
:10398000E02D868197819B838A838A819B810C9617
:103990000E9407108091B104882361F58A819B8180
:1039A00002960E940710EA81FB8196898091AF04FC
:1039B000891728F4EA81FB8186898093AF04EA8124
:1039C000FB818689282F30E0C901880F991F880F55
:1039D000991F880F991F820F931FAC014A545B4FA8
:1039E0008A819B819C012E5F3F4FCA01B9010E94D1
:1039F0004F0F0AC08A819B819C01245F3F4F89EF52
:103A000094E0B9010E944F0FEA81FB819689E09111
:103A1000A804F091A9048689981718F081E0898399
:103A200001C0198289810F900F900F900F900F9015
:103A3000CF91DF910895DF93CF9300D0CDB7DEB75C
:103A40009A8389838091B404E981FA81808380918B
:103A5000AC049091AD04E981FA81928381830F9047
:103A60000F90CF91DF910895DF93CF9300D000D0D6
:103A70000F92CDB7DEB79B838A837D836C830FB6AD
:103A8000F8940F92EA81FB8190818091B404981799
:103A900071F0EA81FB81218132818091AC049091A7
:103AA000AD048217930718F081E089832FC020911D
:103AB000AC043091AD04EA81FB8181819281281BA5
:103AC000390BEC81FD818081918128173907E0F461
:103AD000EC81FD8140815181EA81FB81218132812C
:103AE0008091AC049091AD04B901681B790BCB01B6
:103AF000840F951FEC81FD81918380838A819B8156
:103B00000E941B1D198202C081E089830F900FBEA5
:103B100089810F900F900F900F900F90CF91DF91B0
:103B20000895DF93CF93CDB7DEB781E08093B304E0
:103B3000CF91DF910895DF93CF9300D0CDB7DEB75B
:103B40009A8389830E943D1EFDCF0F931F93DF93BD
:103B5000CF93CDB7DEB729970FB6F894DEBF0FBE6F
:103B6000CDBF9A8389837C836B834D833F832E8370
:103B70001987088789819A8149962B813C81B901EF
:103B800048E050E00E94B724E981FA8110A28D81BB
:103B9000853010F084E08D83E981FA818D81868BF8
:103BA000E981FA818D8181A389819A8102960E949F
:103BB0003F0F89819A810C960E943F0FE981FA811B
:103BC00089819A81918780878D81282F30E085E0D7
:103BD00090E0821B930BE981FA8195878487E981C4
:103BE000FA8189819A81938B828B29960FB6F894FA
:103BF000DEBF0FBECDBFCF91DF911F910F91089512
:103C0000DF93CF930F92CDB7DEB7198213C08981AE
:103C1000282F30E0C901880F991F880F991F880F3E
:103C2000991F820F931F8A549B4F0E94150F898101
:103C30008F5F89838981853050F383EE94E00E9401
:103C4000150F8CEE94E00E94150F89EF94E00E940E
:103C5000150F82E095E00E94150F83EE94E090939B
:103C6000F6048093F5048CEE94E09093F80480932E
:103C7000F7040F90CF91DF910895DF93CF9300D099
:103C80000F92CDB7DEB78091AA04882371F10E940C
:103C9000771A809102051B82882311F481E08B83BF
:103CA0000E94831A8B81882301F50FB6F8940F9236
:103CB000E0910705F0910805868197819A838983B1
:103CC00089819A8102960E9407108091AB048150ED
:103CD0008093AB048091AA0481508093AA040F9032
:103CE0000FBE89819A810E94141F0F900F900F9030
:103CF000CF91DF910895DF93CF9300D0CDB7DEB79A
:103D00009A838983E091A804F091A90489819A811A
:103D1000938382832091AC043091AD0489819A8190
:103D20008217930770F48091F7049091F804209122
:103D3000A8043091A9042E5F3F4FB9010E949B0F48
:103D40001EC04091F5045091F6048091A804909112
:103D5000A9049C012E5F3F4FCA01B9010E949B0F2D
:103D600020917F003091800089819A81821793078A
:103D700030F489819A819093800080937F000F9026
:103D80000F90CF91DF910895DF93CF93CDB7DEB73A
:103D900028970FB6F894DEBF0FBECDBF9C838B83F0
:103DA0007E836D8382E290E00E94A90E9A838983CC
:103DB00089819A81009769F18D819E81009739F4FC
:103DC0008B819C810E94A90E98878F8304C08D816E
:103DD0009E8198878F83E981FA818F819885908F62
:103DE000878BE981FA818789908D009739F48981E1
:103DF0009A810E94EF0E1A8219820BC0E981FA8122
:103E00008789908D2B813C8165EA70E0A9010E9431
:103E1000B02489819A8128960FB6F894DEBF0FBE30
:103E2000CDBFCF91DF910895DF93CF9300D0CDB771
:103E3000DEB79A838983E981FA818789908D0E9410
:103E4000EF0E89819A810E94EF0E0F900F90CF9113
:103E5000DF910895DF93CF9300D0CDB7DEB7809187
:103E6000A8049091A9049A83898389819A810F90EB
:103E70000F90CF91DF910895DF93CF9300D000D0C2
:103E8000CDB7DEB79C838B838B819C819A8389839A
:103E9000E981FA819689E091A804F091A9048689C4
:103EA000981708F062C0E091A804F091A9048689EF
:103EB000282F30E085E090E0821B930BE981FA81A6
:103EC00095878487E981FA8142855385E981FA8162
:103ED0008689282F30E0C901880F991F880F991F04
:103EE000880F991F820F931F8A549B4F48175907B9
:103EF000A1F589819A8102960E940710E091A80499
:103F0000F091A9048689E981FA81868BE981FA8199
:103F100096898091AF04891728F4E981FA8186890E
:103F20008093AF04E981FA818689282F30E0C901A6
:103F3000880F991F880F991F880F991F820F931F51
:103F4000AC014A545B4F89819A819C012E5F3F4F9F
:103F5000CA01B9010E944F0F08C0E091A804F09176
:103F6000A9048689E981FA81868B0F900F900F90C2
:103F70000F90CF91DF910895DF93CF9300D000D0C1
:103F8000CDB7DEB79C838B838B819C819A83898399
:103F90008B819C81009709F447C0E981FA81968959
:103FA000E981FA8181A1981709F43EC089819A813B
:103FB00002960E940710E981FA8181A1E981FA81C4
:103FC000868BE981FA818689282F30E085E090E0B0
:103FD000821B930BE981FA8195878487E981FA81B5
:103FE00096898091AF04891728F4E981FA8186893E
:103FF0008093AF04E981FA818689282F30E0C901D6
:10400000880F991F880F991F880F991F820F931F80
:10401000AC014A545B4F89819A819C012E5F3F4FCE
:10402000CA01B9010E944F0F0F900F900F900F908F
:10403000CF91DF910895DF93CF930F92CDB7DEB785
:104040001982EAE3F0E085E78083EBE3F0E089EDB5
:10405000808389810F90CF91DF910895DF93CF9373
:1040600000D000D000D0CDB7DEB78A836B834C83FD
:1040700019828A81843008F0D1C08B81883008F0A1
:10408000CDC08C81823008F0C9C08A81282F30E0F1
:104090003E832D836D817E816130710509F441C0BD
:1040A0008D819E818230910534F42D813E812115D0
:1040B000310571F0B0C06D817E816230710509F407
:1040C00059C08D819E818330910509F47CC0A3C0C5
:1040D000AAE3B0E0EAE3F0E08081482F8B81282F4B
:1040E00030E081E090E002C0880F991F2A95E2F746
:1040F000809584238C93AAE3B0E0EAE3F0E080812A
:10410000482F8C81282F30E08B81882F90E0B901D7
:1041100002C0660F771F8A95E2F7CB01842B8C9340
:104120007AC0A7E3B0E0E7E3F0E08081482F8B811D
:10413000282F30E081E090E002C0880F991F2A9577
:10414000E2F7809584238C93A7E3B0E0E7E3F0E007
:104150008081482F8C81282F30E08B81882F90E040
:10416000B90102C0660F771F8A95E2F7CB01842B55
:104170008C9351C0A4E3B0E0E4E3F0E08081482FE9
:104180008B81282F30E081E090E002C0880F991FDA
:104190002A95E2F7809584238C93A4E3B0E0E4E3CE
:1041A000F0E08081482F8C81282F30E08B81882F90
:1041B00090E0B90102C0660F771F8A95E2F7CB0144
:1041C000842B8C9328C0A1E3B0E0E1E3F0E0808190
:1041D000482F8B81282F30E081E090E002C0880FCB
:1041E000991F2A95E2F7809584238C93A1E3B0E090
:1041F000E1E3F0E08081482F8C81282F30E08B8133
:10420000882F90E0B90102C0660F771F8A95E2F708
:10421000CB01842B8C9381E0898302C082E0898367
:10422000898126960FB6F894DEBF0FBECDBFCF9121
:10423000DF910895DF93CF9300D000D000D0CDB7A9
:10424000DEB78A836B834C8319828A81843008F0BD
:10425000D1C08B81883008F0CDC08C81823008F0CD
:10426000C9C08A81282F30E03E832D836D817E81F5
:104270006130710509F441C08D819E8182309105C4
:1042800034F42D813E812115310571F0B0C06D816E
:104290007E816230710509F459C08D819E81833021
:1042A000910509F47CC0A3C0ABE3B0E0EBE3F0E020
:1042B0008081482F8B81282F30E081E090E002C080
:1042C000880F991F2A95E2F7809584238C93ABE39E
:1042D000B0E0EBE3F0E08081482F8C81282F30E0C4
:1042E0008B81882F90E0B90102C0660F771F8A95F5
:1042F000E2F7CB01842B8C937AC0A8E3B0E0E8E32B
:10430000F0E08081482F8B81282F30E081E090E021
:1043100002C0880F991F2A95E2F7809584238C9319
:10432000A8E3B0E0E8E3F0E08081482F8C81282FFB
:1043300030E08B81882F90E0B90102C0660F771FB3
:104340008A95E2F7CB01842B8C9351C0A5E3B0E0B2
:10435000E5E3F0E08081482F8B81282F30E081E079
:1043600090E002C0880F991F2A95E2F78095842378
:104370008C93A5E3B0E0E5E3F0E08081482F8C81E9
:10438000282F30E08B81882F90E0B90102C0660FA2
:10439000771F8A95E2F7CB01842B8C9328C0A2E388
:1043A000B0E0E2E3F0E08081482F8B81282F30E0FD
:1043B00081E090E002C0880F991F2A95E2F780956E
:1043C00084238C93A2E3B0E0E2E3F0E08081482F05
:1043D0008C81282F30E08B81882F90E0B90102C0BA
:1043E000660F771F8A95E2F7CB01842B8C9381E0CF
:1043F000898302C082E08983898126960FB6F8946A
:10440000DEBF0FBECDBFCF91DF910895DF93CF9375
:1044100000D000D00F92CDB7DEB78A836B831982AC
:104420008A81843008F075C08B81883008F071C0B3
:104430008A81282F30E03D832C838C819D818130BF
:10444000910549F12C813D81223031052CF48C817C
:104450009D81009761F05AC02C813D812230310549
:1044600071F18C819D8183309105E9F14FC0ABE3FF
:10447000B0E0EBE3F0E08081482F8B81282F30E023
:1044800081E090E0022E02C0880F991F0A94E2F7A3
:1044900084278C933BC0A8E3B0E0E8E3F0E08081A0
:1044A000482F8B81282F30E081E090E0022E02C05F
:1044B000880F991F0A94E2F784278C9327C0A5E3FD
:1044C000B0E0E5E3F0E08081482F8B81282F30E0D9
:1044D00081E090E0022E02C0880F991F0A94E2F753
:1044E00084278C9313C0A2E3B0E0E2E3F0E0808184
:1044F000482F8B81282F30E081E090E0022E02C00F
:10450000880F991F0A94E2F784278C9381E08983AE
:1045100002C082E0898389810F900F900F900F90E5
:104520000F90CF91DF910895DF93CF93CDB7DEB792
:1045300027970FB6F894DEBF0FBECDBF8A836B837B
:104540005D834C8319828C819D81009709F47EC024
:104550008A81843008F077C08B81883008F073C07E
:104560008A81282F30E03F832E834E815F81413046
:10457000510559F18E819F818230910534F42E814D
:104580003F812115310569F05BC04E815F8142306A
:10459000510579F18E819F818330910509F43DC0E9
:1045A0004FC0E9E3F0E08081282F30E08B81882F35
:1045B00090E0A90102C0559547958A95E2F7CA0196
:1045C0008170EC81FD8180833BC0E6E3F0E0808177
:1045D000282F30E08B81882F90E0A90102C05595EB
:1045E00047958A95E2F7CA018170EC81FD8180834D
:1045F00027C0E3E3F0E08081282F30E08B81882F13
:1046000090E0A90102C0559547958A95E2F7CA0145
:104610008170EC81FD81808313C0E0E3F0E0808154
:10462000282F30E08B81882F90E0A90102C055959A
:1046300047958A95E2F7CA018170EC81FD818083FC
:1046400081E0898305C082E0898302C083E0898399
:10465000898127960FB6F894DEBF0FBECDBFCF91EC
:10466000DF910895AF92BF92CF92DF92EF92FF92C7
:104670000F93DF93CF93CDB7DEB70E94A3058EEBE8
:1046800093E20E942D0680E060E041E00E942E202F
:104690008AE060E00E94161490930C0580930B054D
:1046A0008AE061E00E942213909311058093100527
:1046B0008AE061E00E94221390930F0580930E051B
:1046C0000E946C0687E893E260E070E044E650E008
:1046D00020E030E003E0EE24FF24CC24DD24AA24F3
:1046E000BB240E943B1880EE93E260E070E048EC4F
:1046F00050E020E030E001E0EE24FF24CC24DD2473
:10470000AA24BB240E943B180E94341AFFCFDF93D7
:10471000CF9300D00F92CDB7DEB79B838A831982E7
:1047200080910B0590910C0560E070E043E250E051
:1047300020E00E9420158130E1F4809110059091D5
:1047400011059E012F5F3F4FB90145E050E020E089
:104750000E942015813069F480910E0590910F051B
:104760009E012F5F3F4FB90145E050E020E00E94DD
:1047700035148AE090E00E94FF19D2CFDF93CF93E7
:10478000CDB7DEB780910B0590910C0560E070E02D
:1047900040E050E020E00E9435140E942306809300
:1047A0000D0580911005909111052DE035E0B901BE
:1047B00045E050E020E00E943514CF91DF9108954C
:1047C000DF93CF9300D000D00F92CDB7DEB79D839B
:1047D0008C8385E690E00E94620882E061E00E949E
:1047E000320981E08A8380910E0590910F059E0128
:1047F0002D5F3F4FB90145E050E020E00E942015B9
:104800008130A1F48B810E9438088A818F5F8A836E
:104810008B81813331F480E060E041E00E941A2115
:1048200005C080E060E040E00E941A218A8180316A
:10483000A8F082E061E00E943209198206C080E29D
:104840000E94380889818F5F898389818F30B8F30E
:1048500081E08A8382E061E00E9432098FE090E08B
:104860000E94FF19C0CF97FB092E05260ED057FDD9
:1048700004D014D00AD0001C38F4509540953095DF
:1048800021953F4F4F4F5F4F0895F6F790958095D4
:10489000709561957F4F8F4F9F4F0895A1E21A2E1B
:1048A000AA1BBB1BFD010DC0AA1FBB1FEE1FFF1FD4
:1048B000A217B307E407F50720F0A21BB30BE40B24
:1048C000F50B661F771F881F991F1A9469F760956B
:1048D0007095809590959B01AC01BD01CF01089525
:1048E0002F923F924F925F926F927F928F929F9200
:1048F000AF92BF92CF92DF92EF92FF920F931F93EE
:10490000CF93DF93CDB7DEB7CA1BDB0B0FB6F8949E
:10491000DEBF0FBECDBF09942A88398848885F84DE
:104920006E847D848C849B84AA84B984C884DF804F
:10493000EE80FD800C811B81AA81B981CE0FD11D33
:104940000FB6F894DEBF0FBECDBFED010895FB0199
:10495000DC0102C001900D9241505040D8F70895FB
:10496000DC0101C06D9341505040E0F70895FB0118
:10497000DC014150504048F001900D920020C9F7F1
:1049800001C01D9241505040E0F70895F894FFCFC8
:1049900049444C450076616C7565732052656365CA
:1049A000697665643A20000000000000000000FF06
:0249B000FF0006
:00000001FF
